{
  "contractName": "DateTime",
  "abi": [
    {
      "inputs": [
        {
          "internalType": "uint16",
          "name": "year",
          "type": "uint16"
        }
      ],
      "name": "isLeapYear",
      "outputs": [
        {
          "internalType": "bool",
          "name": "",
          "type": "bool"
        }
      ],
      "stateMutability": "pure",
      "type": "function"
    },
    {
      "inputs": [
        {
          "internalType": "uint256",
          "name": "year",
          "type": "uint256"
        }
      ],
      "name": "leapYearsBefore",
      "outputs": [
        {
          "internalType": "uint256",
          "name": "",
          "type": "uint256"
        }
      ],
      "stateMutability": "pure",
      "type": "function"
    },
    {
      "inputs": [
        {
          "internalType": "uint8",
          "name": "month",
          "type": "uint8"
        },
        {
          "internalType": "uint16",
          "name": "year",
          "type": "uint16"
        }
      ],
      "name": "getDaysInMonth",
      "outputs": [
        {
          "internalType": "uint8",
          "name": "",
          "type": "uint8"
        }
      ],
      "stateMutability": "pure",
      "type": "function"
    },
    {
      "inputs": [
        {
          "internalType": "uint256",
          "name": "timestamp",
          "type": "uint256"
        }
      ],
      "name": "getYear",
      "outputs": [
        {
          "internalType": "uint16",
          "name": "",
          "type": "uint16"
        }
      ],
      "stateMutability": "pure",
      "type": "function"
    },
    {
      "inputs": [
        {
          "internalType": "uint256",
          "name": "timestamp",
          "type": "uint256"
        }
      ],
      "name": "getMonth",
      "outputs": [
        {
          "internalType": "uint8",
          "name": "",
          "type": "uint8"
        }
      ],
      "stateMutability": "pure",
      "type": "function"
    },
    {
      "inputs": [
        {
          "internalType": "uint256",
          "name": "timestamp",
          "type": "uint256"
        }
      ],
      "name": "getDay",
      "outputs": [
        {
          "internalType": "uint8",
          "name": "",
          "type": "uint8"
        }
      ],
      "stateMutability": "pure",
      "type": "function"
    },
    {
      "inputs": [
        {
          "internalType": "uint256",
          "name": "timestamp",
          "type": "uint256"
        }
      ],
      "name": "getHour",
      "outputs": [
        {
          "internalType": "uint8",
          "name": "",
          "type": "uint8"
        }
      ],
      "stateMutability": "pure",
      "type": "function"
    },
    {
      "inputs": [
        {
          "internalType": "uint256",
          "name": "timestamp",
          "type": "uint256"
        }
      ],
      "name": "getMinute",
      "outputs": [
        {
          "internalType": "uint8",
          "name": "",
          "type": "uint8"
        }
      ],
      "stateMutability": "pure",
      "type": "function"
    },
    {
      "inputs": [
        {
          "internalType": "uint256",
          "name": "timestamp",
          "type": "uint256"
        }
      ],
      "name": "getSecond",
      "outputs": [
        {
          "internalType": "uint8",
          "name": "",
          "type": "uint8"
        }
      ],
      "stateMutability": "pure",
      "type": "function"
    },
    {
      "inputs": [
        {
          "internalType": "uint256",
          "name": "timestamp",
          "type": "uint256"
        }
      ],
      "name": "getWeekday",
      "outputs": [
        {
          "internalType": "uint8",
          "name": "",
          "type": "uint8"
        }
      ],
      "stateMutability": "pure",
      "type": "function"
    },
    {
      "inputs": [
        {
          "internalType": "uint16",
          "name": "year",
          "type": "uint16"
        },
        {
          "internalType": "uint8",
          "name": "month",
          "type": "uint8"
        },
        {
          "internalType": "uint8",
          "name": "day",
          "type": "uint8"
        },
        {
          "internalType": "uint8",
          "name": "hour",
          "type": "uint8"
        },
        {
          "internalType": "uint8",
          "name": "minute",
          "type": "uint8"
        }
      ],
      "name": "toTimestamp",
      "outputs": [
        {
          "internalType": "uint256",
          "name": "timestamp",
          "type": "uint256"
        }
      ],
      "stateMutability": "pure",
      "type": "function"
    },
    {
      "inputs": [
        {
          "internalType": "uint16",
          "name": "year",
          "type": "uint16"
        },
        {
          "internalType": "uint8",
          "name": "month",
          "type": "uint8"
        },
        {
          "internalType": "uint8",
          "name": "day",
          "type": "uint8"
        },
        {
          "internalType": "uint8",
          "name": "hour",
          "type": "uint8"
        }
      ],
      "name": "toTimestamp",
      "outputs": [
        {
          "internalType": "uint256",
          "name": "timestamp",
          "type": "uint256"
        }
      ],
      "stateMutability": "pure",
      "type": "function"
    },
    {
      "inputs": [
        {
          "internalType": "uint16",
          "name": "year",
          "type": "uint16"
        },
        {
          "internalType": "uint8",
          "name": "month",
          "type": "uint8"
        },
        {
          "internalType": "uint8",
          "name": "day",
          "type": "uint8"
        }
      ],
      "name": "toTimestamp",
      "outputs": [
        {
          "internalType": "uint256",
          "name": "timestamp",
          "type": "uint256"
        }
      ],
      "stateMutability": "pure",
      "type": "function"
    },
    {
      "inputs": [
        {
          "internalType": "uint16",
          "name": "year",
          "type": "uint16"
        },
        {
          "internalType": "uint8",
          "name": "month",
          "type": "uint8"
        },
        {
          "internalType": "uint8",
          "name": "day",
          "type": "uint8"
        },
        {
          "internalType": "uint8",
          "name": "hour",
          "type": "uint8"
        },
        {
          "internalType": "uint8",
          "name": "minute",
          "type": "uint8"
        },
        {
          "internalType": "uint8",
          "name": "second",
          "type": "uint8"
        }
      ],
      "name": "toTimestamp",
      "outputs": [
        {
          "internalType": "uint256",
          "name": "timestamp",
          "type": "uint256"
        }
      ],
      "stateMutability": "pure",
      "type": "function"
    }
  ],
  "bytecode": "0x608060405234801561001057600080fd5b50610ca8806100206000396000f3fe608060405234801561001057600080fd5b50600436106100bd5760e060020a60003504633e239e1a81146100c25780634ac1ad78146100ec57806362ba9687146100ff57806365c72840146101205780637f791833146101335780638aa001fc146101465780638c8d98a0146101595780639054bdec1461016c57806392d663131461017f578063a324ad24146101a5578063a6f0e577146101b8578063b1999937146101db578063b238ad0e146101ee578063fa93f88314610201575b600080fd5b6100d56100d0366004610901565b610214565b60405160ff90911681526020015b60405180910390f35b6100d56100fa366004610901565b61023e565b61011261010d366004610942565b61025a565b6040519081526020016100e3565b6100d561012e366004610901565b610275565b6101126101413660046109a7565b61028a565b6100d5610154366004610901565b6102a4565b6101126101673660046109fb565b6102b1565b61011261017a366004610a3e565b6102cb565b61019261018d366004610901565b61047c565b60405161ffff90911681526020016100e3565b6100d56101b3366004610901565b61056c565b6101cb6101c6366004610ab2565b610581565b60405190151581526020016100e3565b6101126101e9366004610901565b6105e0565b6100d56101fc366004610ad4565b610625565b6100d561020f366004610901565b6106ec565b60006018603c6102248185610b3b565b61022e9190610b3b565b6102389190610b4f565b92915050565b6000600761024f6201518084610b3b565b61022e906004610b63565b600061026b868686868660006102cb565b9695505050505050565b6000610280826106fa565b6040015192915050565b600061029b858585856000806102cb565b95945050505050565b6000610238603c83610b4f565b60006102c384848460008060006102cb565b949350505050565b60006107b25b8761ffff168161ffff161015610327576102ea81610581565b15610304576102fd6301e2850083610b63565b9150610315565b6103126301e1338083610b63565b91505b8061031f81610b7b565b9150506102d1565b61032f6108e2565b601f815261033c89610581565b1561034d57601d6020820152610355565b601c60208201525b601f60408201819052601e606083018190526080830182905260a0830181905260c0830182905260e0830182905261010083018190526101208301829052610140830152610160820152600191505b8760ff168261ffff16101561040657806103bf600184610bb6565b61ffff16600c81106103d3576103d3610b9c565b60200201516103e89060ff1662015180610bd9565b6103f29084610b63565b9250816103fe81610b7b565b9250506103a4565b610411600188610bf8565b6104219060ff1662015180610bd9565b61042b9084610b63565b925061043c60ff8716610e10610bd9565b6104469084610b63565b925061045660ff8616603c610bd9565b6104609084610b63565b925061046f60ff851684610b63565b9998505050505050505050565b600080808061048f6301e1338086610b3b565b61049b906107b2610b63565b91506104a86107b26105e0565b6104b58361ffff166105e0565b6104bf9190610c1b565b90506104cf816301e28500610bd9565b6104d99084610b63565b9250806104e86107b284610bb6565b61ffff166104f69190610c1b565b610504906301e13380610bd9565b61050e9084610b63565b92505b84831115610564576105276101c6600184610bb6565b156105415761053a6301e2850084610c1b565b9250610552565b61054f6301e1338084610c1b565b92505b61055d600183610bb6565b9150610511565b509392505050565b6000610577826106fa565b6020015192915050565b600061058e600483610c32565b61ffff161561059f57506000919050565b6105aa606483610c32565b61ffff16156105bb57506001919050565b6105c761019083610c32565b61ffff16156105d857506000919050565b506001919050565b60006105ed600183610c1b565b91506105fb61019083610b3b565b610606606484610b3b565b610611600485610b3b565b61061b9190610c1b565b6102389190610b63565b60008260ff166001148061063c57508260ff166003145b8061064a57508260ff166005145b8061065857508260ff166007145b8061066657508260ff166008145b8061067457508260ff16600a145b8061068257508260ff16600c145b1561068f5750601f610238565b8260ff16600414806106a457508260ff166006145b806106b257508260ff166009145b806106c057508260ff16600b145b156106cd5750601e610238565b6106d682610581565b156106e35750601d610238565b50601c92915050565b6000603c61022e8184610b3b565b6040805160e081018252600080825260208201819052918101829052606081018290526080810182905260a0810182905260c0810182905290808061073e8561047c565b61ffff16845261074f6107b26105e0565b845161075e9061ffff166105e0565b6107689190610c1b565b9150610778826301e28500610bd9565b6107829084610b63565b9250816107b285600001516107979190610bb6565b61ffff166107a59190610c1b565b6107b3906301e13380610bd9565b6107bd9084610b63565b92506000600191505b600c8260ff161161082e576107df828660000151610625565b6107ef9060ff1662015180610bd9565b9050856107fc8583610b63565b11156108105760ff8216602086015261082e565b61081a8185610b63565b93508161082681610c53565b9250506107c6565b600191505b61084585602001518660000151610625565b60ff168260ff1611610894578561085f8562015180610b63565b11156108735760ff82166040860152610894565b6108806201518085610b63565b93508161088c81610c53565b925050610833565b61089d86610214565b60ff1660608601526108ae866106ec565b60ff1660808601526108bf866102a4565b60ff1660a08601526108d08661023e565b60ff1660c08601525092949350505050565b604051806101800160405280600c906020820280368337509192915050565b60006020828403121561091357600080fd5b5035919050565b803561ffff8116811461092c57600080fd5b919050565b803560ff8116811461092c57600080fd5b600080600080600060a0868803121561095a57600080fd5b6109638661091a565b945061097160208701610931565b935061097f60408701610931565b925061098d60608701610931565b915061099b60808701610931565b90509295509295909350565b600080600080608085870312156109bd57600080fd5b6109c68561091a565b93506109d460208601610931565b92506109e260408601610931565b91506109f060608601610931565b905092959194509250565b600080600060608486031215610a1057600080fd5b610a198461091a565b9250610a2760208501610931565b9150610a3560408501610931565b90509250925092565b60008060008060008060c08789031215610a5757600080fd5b610a608761091a565b9550610a6e60208801610931565b9450610a7c60408801610931565b9350610a8a60608801610931565b9250610a9860808801610931565b9150610aa660a08801610931565b90509295509295509295565b600060208284031215610ac457600080fd5b610acd8261091a565b9392505050565b60008060408385031215610ae757600080fd5b610af083610931565b9150610afe6020840161091a565b90509250929050565b60e060020a634e487b710260009081526012600452602490fd5b60e060020a634e487b710260009081526011600452602490fd5b600082610b4a57610b4a610b07565b500490565b600082610b5e57610b5e610b07565b500690565b60008219821115610b7657610b76610b21565b500190565b600061ffff808316818103610b9257610b92610b21565b6001019392505050565b60e060020a634e487b710260009081526032600452602490fd5b600061ffff83811690831681811015610bd157610bd1610b21565b039392505050565b6000816000190483118215151615610bf357610bf3610b21565b500290565b600060ff821660ff841680821015610c1257610c12610b21565b90039392505050565b600082821015610c2d57610c2d610b21565b500390565b600061ffff80841680610c4757610c47610b07565b92169190910692915050565b600060ff821660ff8103610c6957610c69610b21565b6001019291505056fea2646970667358221220602366283c222e709a89ee357878042b58b22dbb91d55d416d423e312202fc0564736f6c634300080d0033",
  "immutableReferences": {},
  "source": "// SPDX-License-Identifier: MIT\r\npragma solidity >=0.4.22 <0.9.0;\r\ncontract DateTime {\r\n        /*\r\n         *  Date and Time utilities for ethereum contracts\r\n         *\r\n         */\r\n        struct _DateTime {\r\n                uint16 year;\r\n                uint8 month;\r\n                uint8 day;\r\n                uint8 hour;\r\n                uint8 minute;\r\n                uint8 second;\r\n                uint8 weekday;\r\n        }\r\n\r\n        uint constant DAY_IN_SECONDS = 86400;\r\n        uint constant YEAR_IN_SECONDS = 31536000;\r\n        uint constant LEAP_YEAR_IN_SECONDS = 31622400;\r\n\r\n        uint constant HOUR_IN_SECONDS = 3600;\r\n        uint constant MINUTE_IN_SECONDS = 60;\r\n\r\n        uint16 constant ORIGIN_YEAR = 1970;\r\n\r\n        function isLeapYear(uint16 year) public pure returns (bool) {\r\n                if (year % 4 != 0) {\r\n                        return false;\r\n                }\r\n                if (year % 100 != 0) {\r\n                        return true;\r\n                }\r\n                if (year % 400 != 0) {\r\n                        return false;\r\n                }\r\n                return true;\r\n        }\r\n\r\n        function leapYearsBefore(uint year) public pure returns (uint) {\r\n                year -= 1;\r\n                return year / 4 - year / 100 + year / 400;\r\n        }\r\n\r\n        function getDaysInMonth(uint8 month, uint16 year) public pure returns (uint8) {\r\n                if (month == 1 || month == 3 || month == 5 || month == 7 || month == 8 || month == 10 || month == 12) {\r\n                        return 31;\r\n                }\r\n                else if (month == 4 || month == 6 || month == 9 || month == 11) {\r\n                        return 30;\r\n                }\r\n                else if (isLeapYear(year)) {\r\n                        return 29;\r\n                }\r\n                else {\r\n                        return 28;\r\n                }\r\n        }\r\n\r\n        function parseTimestamp(uint timestamp) internal pure returns (_DateTime memory dt) {\r\n                uint secondsAccountedFor = 0;\r\n                uint buf;\r\n                uint8 i;\r\n\r\n                // Year\r\n                dt.year = getYear(timestamp);\r\n                buf = leapYearsBefore(dt.year) - leapYearsBefore(ORIGIN_YEAR);\r\n\r\n                secondsAccountedFor += LEAP_YEAR_IN_SECONDS * buf;\r\n                secondsAccountedFor += YEAR_IN_SECONDS * (dt.year - ORIGIN_YEAR - buf);\r\n\r\n                // Month\r\n                uint secondsInMonth;\r\n                for (i = 1; i <= 12; i++) {\r\n                        secondsInMonth = DAY_IN_SECONDS * getDaysInMonth(i, dt.year);\r\n                        if (secondsInMonth + secondsAccountedFor > timestamp) {\r\n                                dt.month = i;\r\n                                break;\r\n                        }\r\n                        secondsAccountedFor += secondsInMonth;\r\n                }\r\n\r\n                // Day\r\n                for (i = 1; i <= getDaysInMonth(dt.month, dt.year); i++) {\r\n                        if (DAY_IN_SECONDS + secondsAccountedFor > timestamp) {\r\n                                dt.day = i;\r\n                                break;\r\n                        }\r\n                        secondsAccountedFor += DAY_IN_SECONDS;\r\n                }\r\n\r\n                // Hour\r\n                dt.hour = getHour(timestamp);\r\n\r\n                // Minute\r\n                dt.minute = getMinute(timestamp);\r\n\r\n                // Second\r\n                dt.second = getSecond(timestamp);\r\n\r\n                // Day of week.\r\n                dt.weekday = getWeekday(timestamp);\r\n        }\r\n        \r\n        function getYear(uint timestamp) public pure returns (uint16) {\r\n                uint secondsAccountedFor = 0;\r\n                uint16 year;\r\n                uint numLeapYears;\r\n\r\n                // Year\r\n                year = uint16(ORIGIN_YEAR + timestamp / YEAR_IN_SECONDS);\r\n                numLeapYears = leapYearsBefore(year) - leapYearsBefore(ORIGIN_YEAR);\r\n\r\n                secondsAccountedFor += LEAP_YEAR_IN_SECONDS * numLeapYears;\r\n                secondsAccountedFor += YEAR_IN_SECONDS * (year - ORIGIN_YEAR - numLeapYears);\r\n\r\n                while (secondsAccountedFor > timestamp) {\r\n                        if (isLeapYear(uint16(year - 1))) {\r\n                                secondsAccountedFor -= LEAP_YEAR_IN_SECONDS;\r\n                        }\r\n                        else {\r\n                                secondsAccountedFor -= YEAR_IN_SECONDS;\r\n                        }\r\n                        year -= 1;\r\n                }\r\n                return year;\r\n        }\r\n\r\n        function getMonth(uint timestamp) public pure returns (uint8) {\r\n                return parseTimestamp(timestamp).month;\r\n        }\r\n\r\n        function getDay(uint timestamp) public pure returns (uint8) {\r\n                return parseTimestamp(timestamp).day;\r\n        }\r\n\r\n        function getHour(uint timestamp) public pure returns (uint8) {\r\n                return uint8((timestamp / 60 / 60) % 24);\r\n        }\r\n\r\n        function getMinute(uint timestamp) public pure returns (uint8) {\r\n                return uint8((timestamp / 60) % 60);\r\n        }\r\n\r\n        function getSecond(uint timestamp) public pure returns (uint8) {\r\n                return uint8(timestamp % 60);\r\n        }\r\n\r\n        function getWeekday(uint timestamp) public pure returns (uint8) {\r\n                return uint8((timestamp / DAY_IN_SECONDS + 4) % 7);\r\n        }\r\n\r\n        function toTimestamp(uint16 year, uint8 month, uint8 day) public pure returns (uint timestamp) {\r\n                return toTimestamp(year, month, day, 0, 0, 0);\r\n        }\r\n\r\n        function toTimestamp(uint16 year, uint8 month, uint8 day, uint8 hour) public pure returns (uint timestamp) {\r\n                return toTimestamp(year, month, day, hour, 0, 0);\r\n        }\r\n\r\n        function toTimestamp(uint16 year, uint8 month, uint8 day, uint8 hour, uint8 minute) public pure returns (uint timestamp) {\r\n                return toTimestamp(year, month, day, hour, minute, 0);\r\n        }\r\n\r\n        function toTimestamp(uint16 year, uint8 month, uint8 day, uint8 hour, uint8 minute, uint8 second) public pure returns (uint timestamp) {\r\n                uint16 i;\r\n\r\n                // Year\r\n                for (i = ORIGIN_YEAR; i < year; i++) {\r\n                        if (isLeapYear(i)) {\r\n                                timestamp += LEAP_YEAR_IN_SECONDS;\r\n                        }\r\n                        else {\r\n                                timestamp += YEAR_IN_SECONDS;\r\n                        }\r\n                }\r\n\r\n                // Month\r\n                uint8[12] memory monthDayCounts;\r\n                monthDayCounts[0] = 31;\r\n                if (isLeapYear(year)) {\r\n                        monthDayCounts[1] = 29;\r\n                }\r\n                else {\r\n                        monthDayCounts[1] = 28;\r\n                }\r\n                monthDayCounts[2] = 31;\r\n                monthDayCounts[3] = 30;\r\n                monthDayCounts[4] = 31;\r\n                monthDayCounts[5] = 30;\r\n                monthDayCounts[6] = 31;\r\n                monthDayCounts[7] = 31;\r\n                monthDayCounts[8] = 30;\r\n                monthDayCounts[9] = 31;\r\n                monthDayCounts[10] = 30;\r\n                monthDayCounts[11] = 31;\r\n\r\n                for (i = 1; i < month; i++) {\r\n                        timestamp += DAY_IN_SECONDS * monthDayCounts[i - 1];\r\n                }\r\n\r\n                // Day\r\n                timestamp += DAY_IN_SECONDS * (day - 1);\r\n\r\n                // Hour\r\n                timestamp += HOUR_IN_SECONDS * (hour);\r\n\r\n                // Minute\r\n                timestamp += MINUTE_IN_SECONDS * (minute);\r\n\r\n                // Second\r\n                timestamp += second;\r\n\r\n                return timestamp;\r\n        }\r\n}\r\n",
  "sourcePath": "D:\\Web30\\Truffle\\FabricaLeilao\\contracts\\DateTime.sol",
  "compiler": {
    "name": "solc",
    "version": "0.8.13+commit.abaa5c0e.Emscripten.clang"
  },
  "schemaVersion": "3.4.7",
  "updatedAt": "2022-05-15T20:54:28.806Z",
  "devdoc": {
    "kind": "dev",
    "methods": {},
    "version": 1
  },
  "userdoc": {
    "kind": "user",
    "methods": {},
    "version": 1
  }
}