{
  "contractName": "Dummy",
  "abi": [
    {
      "inputs": [],
      "name": "i",
      "outputs": [
        {
          "internalType": "address",
          "name": "",
          "type": "address"
        }
      ],
      "stateMutability": "view",
      "type": "function",
      "constant": true
    },
    {
      "inputs": [
        {
          "internalType": "address",
          "name": "_i",
          "type": "address"
        }
      ],
      "name": "setI",
      "outputs": [],
      "stateMutability": "nonpayable",
      "type": "function"
    },
    {
      "inputs": [],
      "name": "getI",
      "outputs": [
        {
          "internalType": "address",
          "name": "",
          "type": "address"
        }
      ],
      "stateMutability": "view",
      "type": "function",
      "constant": true
    }
  ],
  "bytecode": "0x608060405234801561001057600080fd5b50610112806100206000396000f3fe6080604052348015600f57600080fd5b5060043610603f5760e060020a60003504636fae3f75811460445780639e2fb7e2146073578063e5aa3d5814609c575b600080fd5b6071604f36600460ae565b60008054600160a060020a031916600160a060020a0392909216919091179055565b005b600054600160a060020a03165b604051600160a060020a03909116815260200160405180910390f35b600054608090600160a060020a031681565b60006020828403121560bf57600080fd5b8135600160a060020a038116811460d557600080fd5b939250505056fea26469706673582212204d4e98ca34723583f3f2182d2a49f11063435be014264645fdb4e77f4a8e34f664736f6c634300080d0033",
  "immutableReferences": {},
  "source": "// SPDX-License-Identifier: MIT\r\npragma solidity >=0.4.22 <0.9.0;\r\ncontract Dummy {\r\n    address public  i;\r\n\r\n    function setI(address _i) public { \r\n        i = _i;\r\n    }\r\n    function getI() public view returns(address) {\r\n        return i;\r\n    }\r\n}",
  "sourcePath": "D:\\Web30\\Truffle\\FabricaLeilao\\contracts\\Dummy.sol",
  "compiler": {
    "name": "solc",
    "version": "0.8.13+commit.abaa5c0e.Emscripten.clang"
  },
  "schemaVersion": "3.4.7",
  "updatedAt": "2022-05-15T20:54:38.363Z",
  "networkType": "ethereum",
  "devdoc": {
    "kind": "dev",
    "methods": {},
    "version": 1
  },
  "userdoc": {
    "kind": "user",
    "methods": {},
    "version": 1
  }
}