{
  "contractName": "FabricaLeilao",
  "abi": [
    {
      "anonymous": false,
      "inputs": [
        {
          "indexed": true,
          "internalType": "address",
          "name": "previousOwner",
          "type": "address"
        },
        {
          "indexed": true,
          "internalType": "address",
          "name": "newOwner",
          "type": "address"
        }
      ],
      "name": "OwnershipTransferred",
      "type": "event"
    },
    {
      "inputs": [
        {
          "internalType": "uint256",
          "name": "",
          "type": "uint256"
        }
      ],
      "name": "Contratos",
      "outputs": [
        {
          "internalType": "contract Leilao",
          "name": "",
          "type": "address"
        }
      ],
      "stateMutability": "view",
      "type": "function",
      "constant": true
    },
    {
      "inputs": [
        {
          "internalType": "uint256",
          "name": "",
          "type": "uint256"
        }
      ],
      "name": "Leiloes",
      "outputs": [
        {
          "internalType": "uint256",
          "name": "Id",
          "type": "uint256"
        },
        {
          "internalType": "string",
          "name": "urlToken",
          "type": "string"
        },
        {
          "internalType": "bool",
          "name": "Iniciado",
          "type": "bool"
        },
        {
          "internalType": "uint256",
          "name": "MaiorLance",
          "type": "uint256"
        },
        {
          "internalType": "address",
          "name": "DonoMaiorLance",
          "type": "address"
        }
      ],
      "stateMutability": "view",
      "type": "function",
      "constant": true
    },
    {
      "inputs": [],
      "name": "owner",
      "outputs": [
        {
          "internalType": "address",
          "name": "",
          "type": "address"
        }
      ],
      "stateMutability": "view",
      "type": "function",
      "constant": true
    },
    {
      "inputs": [],
      "name": "renounceOwnership",
      "outputs": [],
      "stateMutability": "nonpayable",
      "type": "function"
    },
    {
      "inputs": [
        {
          "internalType": "address",
          "name": "newOwner",
          "type": "address"
        }
      ],
      "name": "transferOwnership",
      "outputs": [],
      "stateMutability": "nonpayable",
      "type": "function"
    },
    {
      "inputs": [
        {
          "internalType": "address",
          "name": "mintier",
          "type": "address"
        }
      ],
      "name": "novoLeilao",
      "outputs": [],
      "stateMutability": "nonpayable",
      "type": "function"
    },
    {
      "inputs": [
        {
          "internalType": "uint256",
          "name": "startingBid",
          "type": "uint256"
        },
        {
          "internalType": "string",
          "name": "nftUrl",
          "type": "string"
        },
        {
          "internalType": "uint256",
          "name": "newItemId",
          "type": "uint256"
        }
      ],
      "name": "iniciaLeilao",
      "outputs": [],
      "stateMutability": "nonpayable",
      "type": "function"
    },
    {
      "inputs": [
        {
          "internalType": "uint256",
          "name": "leilaoId",
          "type": "uint256"
        }
      ],
      "name": "encerrarLeilao",
      "outputs": [],
      "stateMutability": "nonpayable",
      "type": "function"
    },
    {
      "inputs": [
        {
          "internalType": "uint256",
          "name": "leilaoId",
          "type": "uint256"
        }
      ],
      "name": "darLance",
      "outputs": [],
      "stateMutability": "payable",
      "type": "function",
      "payable": true
    },
    {
      "inputs": [
        {
          "internalType": "uint256",
          "name": "leilaoId",
          "type": "uint256"
        }
      ],
      "name": "sacar",
      "outputs": [],
      "stateMutability": "payable",
      "type": "function",
      "payable": true
    },
    {
      "inputs": [],
      "name": "listarLances",
      "outputs": [
        {
          "components": [
            {
              "internalType": "uint256",
              "name": "Id",
              "type": "uint256"
            },
            {
              "internalType": "string",
              "name": "urlToken",
              "type": "string"
            },
            {
              "internalType": "bool",
              "name": "Iniciado",
              "type": "bool"
            },
            {
              "internalType": "uint256",
              "name": "MaiorLance",
              "type": "uint256"
            },
            {
              "internalType": "address",
              "name": "DonoMaiorLance",
              "type": "address"
            }
          ],
          "internalType": "struct FabricaLeilao.DadosLeilao[]",
          "name": "",
          "type": "tuple[]"
        }
      ],
      "stateMutability": "view",
      "type": "function",
      "constant": true
    }
  ],
  "bytecode": "0x608060405234801561001057600080fd5b50610033610025640100000000610038810204565b64010000000061003c810204565b61008c565b3390565b60008054600160a060020a03838116600160a060020a0319831681178455604051919092169283917f8be0079c531659141344cd1fd0a4f28419497f9722a3daafe3b4186f6b6457e09190a35050565b61185e8061009b6000396000f3fe60806040526004361061008f5760e060020a60003504632c0b880f8114610094578063608d600b146100b6578063683e8a90146100ec578063715018a61461011d5780637371b0d6146101325780638da5cb5b14610145578063aaa288ca1461015a578063d2fdea0e1461017c578063e5eafdef1461018f578063ef08483a146101af578063f2fde38b146101cf575b600080fd5b3480156100a057600080fd5b506100b46100af366004610c00565b6101ef565b005b3480156100c257600080fd5b506100d66100d1366004610c00565b61031b565b6040516100e39190610c19565b60405180910390f35b3480156100f857600080fd5b5061010c610107366004610c00565b610345565b6040516100e3959493929190610c7a565b34801561012957600080fd5b506100b461041e565b6100b4610140366004610c00565b61045c565b34801561015157600080fd5b506100d66104d5565b34801561016657600080fd5b5061016f6104e4565b6040516100e39190610cb9565b6100b461018a366004610c00565b610611565b34801561019b57600080fd5b506100b46101aa366004610d70565b61079d565b3480156101bb57600080fd5b506100b46101ca366004610e48565b610895565b3480156101db57600080fd5b506100b46101ea366004610e48565b610a61565b6003818154811061020257610202610e6c565b600091825260209091206002600590920201015460ff16151560011461026b5760405160e560020a62461bcd0281526020600482015260136024820152606860020a724c65696c616f206e616f20696e69636961646f0260448201526064015b60405180910390fd5b6002818154811061027e5761027e610e6c565b60009182526020822001546040805160e260020a633bef87070281529051600160a060020a039092169263efbe1c1c9260048084019382900301818387803b1580156102c957600080fd5b505af11580156102dd573d6000803e3d6000fd5b505050506000600382815481106102f6576102f6610e6c565b60009182526020909120600590910201600201805460ff191691151591909117905550565b6002818154811061032b57600080fd5b600091825260209091200154600160a060020a0316905081565b6003818154811061035557600080fd5b6000918252602090912060059091020180546001820180549193509061037a90610e86565b80601f01602080910402602001604051908101604052809291908181526020018280546103a690610e86565b80156103f35780601f106103c8576101008083540402835291602001916103f3565b820191906000526020600020905b8154815290600101906020018083116103d657829003601f168201915b5050505060028301546003840154600490940154929360ff90911692909150600160a060020a031685565b336104276104d5565b600160a060020a0316146104505760405160e560020a62461bcd02815260040161026290610ec4565b61045a6000610b0a565b565b6002818154811061046f5761046f610e6c565b60009182526020822001546040805160e160020a63295a85150281529051600160a060020a03909216926352b50a2a9260048084019382900301818387803b1580156104ba57600080fd5b505af11580156104ce573d6000803e3d6000fd5b5050505050565b600054600160a060020a031690565b60606003805480602002602001604051908101604052809291908181526020016000905b8282101561060857838290600052602060002090600502016040518060a00160405290816000820154815260200160018201805461054590610e86565b80601f016020809104026020016040519081016040528092919081815260200182805461057190610e86565b80156105be5780601f10610593576101008083540402835291602001916105be565b820191906000526020600020905b8154815290600101906020018083116105a157829003601f168201915b5050509183525050600282015460ff16151560208083019190915260038301546040830152600490920154600160a060020a03166060909101529082526001929092019101610508565b50505050905090565b6000806002838154811061062757610627610e6c565b60009182526020822001546040805160e060020a631998aeef0281529051600160a060020a0390921692631998aeef9260048084019382900301818387803b15801561067257600080fd5b505af1158015610686573d6000803e3d6000fd5b505050506002838154811061069d5761069d610e6c565b9060005260206000200160009054906101000a9004600160a060020a0316600160a060020a031663a57e2d4d6040518163ffffffff1660e060020a0281526004016040805180830381865afa1580156106fa573d6000803e3d6000fd5b505050506040513d601f19601f8201168201806040525081019061071e9190610ef9565b8092508193505050806003848154811061073a5761073a610e6c565b906000526020600020906005020160030181905550816003848154811061076357610763610e6c565b906000526020600020906005020160040160006101000a815481600160a060020a030219169083600160a060020a03160217905550505050565b600281815481106107b0576107b0610e6c565b60009182526020909120015460405160e060020a6395805dad02815260048101859052600160a060020a03909116906395805dad90602401600060405180830381600087803b15801561080257600080fd5b505af1158015610816573d6000803e3d6000fd5b5050505060016003828154811061082f5761082f610e6c565b906000526020600020906005020160020160006101000a81548160ff021916908315150217905550816003828154811061086b5761086b610e6c565b9060005260206000209060050201600101908051906020019061088f929190610b5a565b50505050565b3361089e6104d5565b600160a060020a0316146108c75760405160e560020a62461bcd02815260040161026290610ec4565b60006040516108d590610bde565b604051809103906000f0801580156108f1573d6000803e3d6000fd5b5060405160e160020a634c1d96ab028152909150600160a060020a0382169063983b2d5690610924908590600401610c19565b600060405180830381600087803b15801561093e57600080fd5b505af1158015610952573d6000803e3d6000fd5b5050600280546001808201835560008381527f405787fa12a823e0f2b7631cc41b3ba8828b3321ca811111fa75cd3aa3bb5ace9092018054600160a060020a031916600160a060020a03881617905591549093506109b09250610f27565b905080600382815481106109c6576109c6610e6c565b90600052602060002090600502016000018190555060405180602001604052806000815250600382815481106109fe576109fe610e6c565b90600052602060002090600502016001019080519060200190610a22929190610b5a565b50600060038281548110610a3857610a38610e6c565b906000526020600020906005020160030181905550826003828154811061076357610763610e6c565b33610a6a6104d5565b600160a060020a031614610a935760405160e560020a62461bcd02815260040161026290610ec4565b600160a060020a038116610afe5760405160e560020a62461bcd02815260206004820152602660248201527f4f776e61626c653a206e6577206f776e657220697320746865207a65726f2061604482015260d060020a65646472657373026064820152608401610262565b610b0781610b0a565b50565b60008054600160a060020a03838116600160a060020a0319831681178455604051919092169283917f8be0079c531659141344cd1fd0a4f28419497f9722a3daafe3b4186f6b6457e09190a35050565b828054610b6690610e86565b90600052602060002090601f016020900481019282610b885760008555610bce565b82601f10610ba157805160ff1916838001178555610bce565b82800160010185558215610bce579182015b82811115610bce578251825591602001919060010190610bb3565b50610bda929150610beb565b5090565b6108d880610f5183390190565b5b80821115610bda5760008155600101610bec565b600060208284031215610c1257600080fd5b5035919050565b600160a060020a0391909116815260200190565b6000815180845260005b81811015610c5357602081850181015186830182015201610c37565b81811115610c65576000602083870101525b50601f01601f19169290920160200192915050565b85815260a060208201526000610c9360a0830187610c2d565b9415156040830152506060810192909252600160a060020a031660809091015292915050565b60208082528251828201819052600091906040908185019080840286018301878501865b83811015610d4857603f19898403018552815160a08151855288820151818a870152610d0b82870182610c2d565b838a01511515878b015260608085015190880152608093840151600160a060020a0316939096019290925250509386019390860190600101610cdd565b509098975050505050505050565b60e060020a634e487b710260009081526041600452602490fd5b600080600060608486031215610d8557600080fd5b8335925060208401356001604060020a0380821115610da357600080fd5b818601915086601f830112610db757600080fd5b813581811115610dc957610dc9610d56565b604051601f8201601f19908116603f01168101908382118183101715610df157610df1610d56565b81604052828152896020848701011115610e0a57600080fd5b826020860160208301376000602084830101528096505050505050604084013590509250925092565b600160a060020a0381168114610b0757600080fd5b600060208284031215610e5a57600080fd5b8135610e6581610e33565b9392505050565b60e060020a634e487b710260009081526032600452602490fd5b600281046001821680610e9a57607f821691505b602082108103610ebe5760e060020a634e487b710260009081526022600452602490fd5b50919050565b6020808252818101527f4f776e61626c653a2063616c6c6572206973206e6f7420746865206f776e6572604082015260600190565b60008060408385031215610f0c57600080fd5b8251610f1781610e33565b6020939093015192949293505050565b600082821015610f4b5760e060020a634e487b710260009081526011600452602490fd5b50039056fe60806040526000805460ff1916815560025534801561001d57600080fd5b506108ab8061002d6000396000f3fe60806040526004361061009a5760e060020a600035046312fa6feb811461009f5780631998aeef146100d35780631f2698ab146100dd57806352b50a2a146100f75780637cc3ae8c146100ff57806391f901571461012357806395805dad1461015b578063983b2d561461017b578063a57e2d4d14610199578063d57bde79146101cb578063dea722f2146101e1578063efbe1c1c14610203575b600080fd5b3480156100ab57600080fd5b506000546100be90610100900460ff1681565b60405190151581526020015b60405180910390f35b6100db610218565b005b3480156100e957600080fd5b506000546100be9060ff1681565b6100db610421565b34801561010b57600080fd5b5061011560015481565b6040519081526020016100ca565b34801561012f57600080fd5b5060045461014390600160a060020a031681565b604051600160a060020a0390911681526020016100ca565b34801561016757600080fd5b506100db610176366004610791565b610576565b34801561018757600080fd5b506100db6101963660046107aa565b50565b3480156101a557600080fd5b506101bd600454600354600160a060020a0390911691565b6040516100ca9291906107da565b3480156101d757600080fd5b5061011560035481565b3480156101ed57600080fd5b506101f66105ce565b6040516100ca91906107f3565b34801561020f57600080fd5b506100db610643565b60005460ff166102725760405160e560020a62461bcd02815260206004820152601a60248201527f4f204c65696c616f2061696e6461206e616f20636f6d65636f7500000000000060448201526064015b60405180910390fd5b600054610100900460ff16156102c75760405160e560020a62461bcd0281526020600482015260146024820152606060020a734f204c65696c616f206a61207465726d696e6f75026044820152606401610269565b60035434116103365760405160e560020a62461bcd02815260206004820152602f60248201527f4f2076616c6f722074656d2071756520736572206d61696f7220717565206f206044820152608860020a6e6c616e6365206d61697320616c746f026064820152608401610269565b60408051808201825233602080830182815234808552600780546001810182556000918252865160029091027fa66cc928b5edb82af9bd49922954155ab7b0942694bea4ce44661d9a8736c68881019190915592517fa66cc928b5edb82af9bd49922954155ab7b0942694bea4ce44661d9a8736c6899093018054600160a060020a03909416600160a060020a0319948516179055600480549093168517909255838252600683529085902081905560038190559351938452919290917fe684a55f31b79eca403df938249029212a5925ec6be8012e099b45bc1019e5d2910160405180910390a250565b600054610100900460ff1661047b5760405160e560020a62461bcd02815260206004820152601b60248201527f4f206c65696c616f2061696e6461206e616f207465726d696e6f7500000000006044820152606401610269565b600454600160a060020a031633036104d75760405160e560020a62461bcd0281526020600482015260196024820152603960020a78279033b0b73430b237b9103730b7903837b2329039b0b1b0b9026044820152606401610269565b33600090815260066020526040902054806105375760405160e560020a62461bcd02815260206004820152601b60248201527f566f6365206e616f2074656d206e6164612070726120736163617200000000006044820152606401610269565b336000818152600660205260408082208290555183156108fc0291849190818181858888f19350505050158015610572573d6000803e3d6000fd5b5050565b6000805461ffff191660011790556105904261025861084b565b60015560038190556040518181527ff06a29c94c6f4edc1085072972d9441f7603e81c8535a308f214285d0653c8509060200160405180910390a150565b60606007805480602002602001604051908101604052809291908181526020016000905b8282101561063a576000848152602090819020604080518082019091526002850290910180548252600190810154600160a060020a03168284015290835290920191016105f2565b50505050905090565b60005460ff166106915760405160e560020a62461bcd0281526020600482015260136024820152606860020a724c65696c616f206e616f20696e69636961646f026044820152606401610269565b60015442116106e45760405160e560020a62461bcd0281526020600482015260196024820152603860020a784c65696c616f2061696e6461206e616f207465726d696e6f75026044820152606401610269565b600054610100900460ff16156107385760405160e560020a62461bcd0281526020600482015260136024820152606860020a724c65696c616f206a6120207465726d696e6f75026044820152606401610269565b6000805461ff0019166101001790556004546003546040517f7d7570b046e5ead3a4f3fbc9fa2445113625a1e79823776146316bafed6b8cc59261078792600160a060020a03909116916107da565b60405180910390a1565b6000602082840312156107a357600080fd5b5035919050565b6000602082840312156107bc57600080fd5b8135600160a060020a03811681146107d357600080fd5b9392505050565b600160a060020a03929092168252602082015260400190565b602080825282518282018190526000919060409081850190868401855b8281101561083e57815180518552860151600160a060020a0316868501529284019290850190600101610810565b5091979650505050505050565b600082198211156108705760e060020a634e487b710260009081526011600452602490fd5b50019056fea26469706673582212204ba54916d2ed0323ddf70a2fd8853aa4bb3e2f6735be6f2b682e923dbc04eba564736f6c634300080d0033a2646970667358221220185cf831ea79d0e248993701084dfe412db8ccd9a875d35da7a89f84df48286364736f6c634300080d0033",
  "immutableReferences": {},
  "source": "// SPDX-License-Identifier: MIT\r\npragma solidity >=0.4.22 <0.9.0;\r\nimport \"./Leilao.sol\";\r\nimport \"@openzeppelin/contracts/utils/Counters.sol\";\r\nimport \"@openzeppelin/contracts/access/Ownable.sol\";\r\ncontract FabricaLeilao is Ownable {\r\n    using Counters for Counters.Counter;\r\n    Counters.Counter private LeilaoId;\r\n    Leilao[] public Contratos;\r\n    DadosLeilao[] public Leiloes;\r\n    uint private leloesCount;\r\n    struct DadosLeilao {\r\n        uint Id ;\r\n        string urlToken;\r\n        bool Iniciado;\r\n        uint MaiorLance;\r\n        address DonoMaiorLance;\r\n    }\r\n    \r\n    \r\n    function novoLeilao( address  mintier) onlyOwner public  \r\n    {\r\n        Leilao contrato= new Leilao()\r\n        ;\r\n        contrato.addMinter(mintier);\r\n        Contratos.push(contrato);\r\n        uint length = Contratos.length -1;\r\n        Leiloes[length ].Id = length;\r\n        Leiloes[length].urlToken = \"\";\r\n        Leiloes[length].MaiorLance =0;\r\n\r\n        Leiloes[length].DonoMaiorLance = mintier;\r\n        \r\n    }\r\n    function iniciaLeilao(uint startingBid, string memory nftUrl,uint newItemId ) public {\r\n        //require(Contratos[newItemId ].isMintedr(), \"Voce nao tem privilegios para executar essa acao\");\r\n        Contratos[newItemId].start(startingBid );\r\n        Leiloes[newItemId].Iniciado = true;\r\n        Leiloes[newItemId].urlToken = nftUrl;\r\n\r\n\r\n    }\r\n    function encerrarLeilao(uint leilaoId) public {\r\n        require(Leiloes[leilaoId].Iniciado == true,\"Leilao nao iniciado\");\r\n        //require(Contratos[leilaoId ].isMintedr(), \"Voce nao tem privilegios para executar essa acao\");\r\n        Contratos[leilaoId].end();\r\n        Leiloes[leilaoId].Iniciado = false;\r\n    }\r\n    function darLance(uint leilaoId) external payable {\r\n        address bidder;\r\n         uint bidValue;\r\n        \r\n        Contratos[leilaoId].bid();\r\n        ( bidder, bidValue) = Contratos[leilaoId].getHighest();\r\n        Leiloes[leilaoId].MaiorLance = bidValue;\r\n        Leiloes[leilaoId].DonoMaiorLance =  bidder;\r\n        \r\n    }\r\n    function sacar(uint leilaoId)  external payable {\r\n        Contratos[leilaoId].widthdraw();\r\n    }\r\n    function listarLances() public view returns(DadosLeilao[] memory) {\r\n        return Leiloes;\r\n    }\r\n} ",
  "sourcePath": "D:\\Web30\\Truffle\\FabricaLeilao\\contracts\\FabricaLeilao.sol",
  "compiler": {
    "name": "solc",
    "version": "0.8.13+commit.abaa5c0e.Emscripten.clang"
  },
  "schemaVersion": "3.4.7",
  "updatedAt": "2022-05-15T20:54:37.102Z",
  "networkType": "ethereum",
  "devdoc": {
    "kind": "dev",
    "methods": {
      "owner()": {
        "details": "Returns the address of the current owner."
      },
      "renounceOwnership()": {
        "details": "Leaves the contract without owner. It will not be possible to call `onlyOwner` functions anymore. Can only be called by the current owner. NOTE: Renouncing ownership will leave the contract without an owner, thereby removing any functionality that is only available to the owner."
      },
      "transferOwnership(address)": {
        "details": "Transfers ownership of the contract to a new account (`newOwner`). Can only be called by the current owner."
      }
    },
    "version": 1
  },
  "userdoc": {
    "kind": "user",
    "methods": {},
    "version": 1
  }
}