{
  "contractName": "GMalatoToken",
  "abi": [
    {
      "inputs": [],
      "stateMutability": "nonpayable",
      "type": "constructor"
    },
    {
      "anonymous": false,
      "inputs": [
        {
          "indexed": true,
          "internalType": "address",
          "name": "owner",
          "type": "address"
        },
        {
          "indexed": true,
          "internalType": "address",
          "name": "approved",
          "type": "address"
        },
        {
          "indexed": true,
          "internalType": "uint256",
          "name": "tokenId",
          "type": "uint256"
        }
      ],
      "name": "Approval",
      "type": "event"
    },
    {
      "anonymous": false,
      "inputs": [
        {
          "indexed": true,
          "internalType": "address",
          "name": "owner",
          "type": "address"
        },
        {
          "indexed": true,
          "internalType": "address",
          "name": "operator",
          "type": "address"
        },
        {
          "indexed": false,
          "internalType": "bool",
          "name": "approved",
          "type": "bool"
        }
      ],
      "name": "ApprovalForAll",
      "type": "event"
    },
    {
      "anonymous": false,
      "inputs": [
        {
          "indexed": true,
          "internalType": "address",
          "name": "previousOwner",
          "type": "address"
        },
        {
          "indexed": true,
          "internalType": "address",
          "name": "newOwner",
          "type": "address"
        }
      ],
      "name": "OwnershipTransferred",
      "type": "event"
    },
    {
      "anonymous": false,
      "inputs": [
        {
          "indexed": true,
          "internalType": "bytes32",
          "name": "role",
          "type": "bytes32"
        },
        {
          "indexed": true,
          "internalType": "bytes32",
          "name": "previousAdminRole",
          "type": "bytes32"
        },
        {
          "indexed": true,
          "internalType": "bytes32",
          "name": "newAdminRole",
          "type": "bytes32"
        }
      ],
      "name": "RoleAdminChanged",
      "type": "event"
    },
    {
      "anonymous": false,
      "inputs": [
        {
          "indexed": true,
          "internalType": "bytes32",
          "name": "role",
          "type": "bytes32"
        },
        {
          "indexed": true,
          "internalType": "address",
          "name": "account",
          "type": "address"
        },
        {
          "indexed": true,
          "internalType": "address",
          "name": "sender",
          "type": "address"
        }
      ],
      "name": "RoleGranted",
      "type": "event"
    },
    {
      "anonymous": false,
      "inputs": [
        {
          "indexed": true,
          "internalType": "bytes32",
          "name": "role",
          "type": "bytes32"
        },
        {
          "indexed": true,
          "internalType": "address",
          "name": "account",
          "type": "address"
        },
        {
          "indexed": true,
          "internalType": "address",
          "name": "sender",
          "type": "address"
        }
      ],
      "name": "RoleRevoked",
      "type": "event"
    },
    {
      "anonymous": false,
      "inputs": [
        {
          "indexed": true,
          "internalType": "address",
          "name": "from",
          "type": "address"
        },
        {
          "indexed": true,
          "internalType": "address",
          "name": "to",
          "type": "address"
        },
        {
          "indexed": true,
          "internalType": "uint256",
          "name": "tokenId",
          "type": "uint256"
        }
      ],
      "name": "Transfer",
      "type": "event"
    },
    {
      "inputs": [],
      "name": "DEFAULT_ADMIN_ROLE",
      "outputs": [
        {
          "internalType": "bytes32",
          "name": "",
          "type": "bytes32"
        }
      ],
      "stateMutability": "view",
      "type": "function",
      "constant": true
    },
    {
      "inputs": [],
      "name": "MINTER_ROLE",
      "outputs": [
        {
          "internalType": "bytes32",
          "name": "",
          "type": "bytes32"
        }
      ],
      "stateMutability": "view",
      "type": "function",
      "constant": true
    },
    {
      "inputs": [
        {
          "internalType": "address",
          "name": "to",
          "type": "address"
        },
        {
          "internalType": "uint256",
          "name": "tokenId",
          "type": "uint256"
        }
      ],
      "name": "approve",
      "outputs": [],
      "stateMutability": "nonpayable",
      "type": "function"
    },
    {
      "inputs": [
        {
          "internalType": "address",
          "name": "owner",
          "type": "address"
        }
      ],
      "name": "balanceOf",
      "outputs": [
        {
          "internalType": "uint256",
          "name": "",
          "type": "uint256"
        }
      ],
      "stateMutability": "view",
      "type": "function",
      "constant": true
    },
    {
      "inputs": [
        {
          "internalType": "uint256",
          "name": "tokenId",
          "type": "uint256"
        }
      ],
      "name": "getApproved",
      "outputs": [
        {
          "internalType": "address",
          "name": "",
          "type": "address"
        }
      ],
      "stateMutability": "view",
      "type": "function",
      "constant": true
    },
    {
      "inputs": [
        {
          "internalType": "bytes32",
          "name": "role",
          "type": "bytes32"
        }
      ],
      "name": "getRoleAdmin",
      "outputs": [
        {
          "internalType": "bytes32",
          "name": "",
          "type": "bytes32"
        }
      ],
      "stateMutability": "view",
      "type": "function",
      "constant": true
    },
    {
      "inputs": [
        {
          "internalType": "bytes32",
          "name": "role",
          "type": "bytes32"
        },
        {
          "internalType": "address",
          "name": "account",
          "type": "address"
        }
      ],
      "name": "grantRole",
      "outputs": [],
      "stateMutability": "nonpayable",
      "type": "function"
    },
    {
      "inputs": [
        {
          "internalType": "bytes32",
          "name": "role",
          "type": "bytes32"
        },
        {
          "internalType": "address",
          "name": "account",
          "type": "address"
        }
      ],
      "name": "hasRole",
      "outputs": [
        {
          "internalType": "bool",
          "name": "",
          "type": "bool"
        }
      ],
      "stateMutability": "view",
      "type": "function",
      "constant": true
    },
    {
      "inputs": [
        {
          "internalType": "address",
          "name": "owner",
          "type": "address"
        },
        {
          "internalType": "address",
          "name": "operator",
          "type": "address"
        }
      ],
      "name": "isApprovedForAll",
      "outputs": [
        {
          "internalType": "bool",
          "name": "",
          "type": "bool"
        }
      ],
      "stateMutability": "view",
      "type": "function",
      "constant": true
    },
    {
      "inputs": [],
      "name": "name",
      "outputs": [
        {
          "internalType": "string",
          "name": "",
          "type": "string"
        }
      ],
      "stateMutability": "view",
      "type": "function",
      "constant": true
    },
    {
      "inputs": [],
      "name": "owner",
      "outputs": [
        {
          "internalType": "address",
          "name": "",
          "type": "address"
        }
      ],
      "stateMutability": "view",
      "type": "function",
      "constant": true
    },
    {
      "inputs": [
        {
          "internalType": "uint256",
          "name": "tokenId",
          "type": "uint256"
        }
      ],
      "name": "ownerOf",
      "outputs": [
        {
          "internalType": "address",
          "name": "",
          "type": "address"
        }
      ],
      "stateMutability": "view",
      "type": "function",
      "constant": true
    },
    {
      "inputs": [],
      "name": "renounceOwnership",
      "outputs": [],
      "stateMutability": "nonpayable",
      "type": "function"
    },
    {
      "inputs": [
        {
          "internalType": "bytes32",
          "name": "role",
          "type": "bytes32"
        },
        {
          "internalType": "address",
          "name": "account",
          "type": "address"
        }
      ],
      "name": "renounceRole",
      "outputs": [],
      "stateMutability": "nonpayable",
      "type": "function"
    },
    {
      "inputs": [
        {
          "internalType": "bytes32",
          "name": "role",
          "type": "bytes32"
        },
        {
          "internalType": "address",
          "name": "account",
          "type": "address"
        }
      ],
      "name": "revokeRole",
      "outputs": [],
      "stateMutability": "nonpayable",
      "type": "function"
    },
    {
      "inputs": [
        {
          "internalType": "address",
          "name": "from",
          "type": "address"
        },
        {
          "internalType": "address",
          "name": "to",
          "type": "address"
        },
        {
          "internalType": "uint256",
          "name": "tokenId",
          "type": "uint256"
        }
      ],
      "name": "safeTransferFrom",
      "outputs": [],
      "stateMutability": "nonpayable",
      "type": "function"
    },
    {
      "inputs": [
        {
          "internalType": "address",
          "name": "from",
          "type": "address"
        },
        {
          "internalType": "address",
          "name": "to",
          "type": "address"
        },
        {
          "internalType": "uint256",
          "name": "tokenId",
          "type": "uint256"
        },
        {
          "internalType": "bytes",
          "name": "_data",
          "type": "bytes"
        }
      ],
      "name": "safeTransferFrom",
      "outputs": [],
      "stateMutability": "nonpayable",
      "type": "function"
    },
    {
      "inputs": [
        {
          "internalType": "address",
          "name": "operator",
          "type": "address"
        },
        {
          "internalType": "bool",
          "name": "approved",
          "type": "bool"
        }
      ],
      "name": "setApprovalForAll",
      "outputs": [],
      "stateMutability": "nonpayable",
      "type": "function"
    },
    {
      "inputs": [],
      "name": "symbol",
      "outputs": [
        {
          "internalType": "string",
          "name": "",
          "type": "string"
        }
      ],
      "stateMutability": "view",
      "type": "function",
      "constant": true
    },
    {
      "inputs": [
        {
          "internalType": "uint256",
          "name": "tokenId",
          "type": "uint256"
        }
      ],
      "name": "tokenURI",
      "outputs": [
        {
          "internalType": "string",
          "name": "",
          "type": "string"
        }
      ],
      "stateMutability": "view",
      "type": "function",
      "constant": true
    },
    {
      "inputs": [
        {
          "internalType": "address",
          "name": "from",
          "type": "address"
        },
        {
          "internalType": "address",
          "name": "to",
          "type": "address"
        },
        {
          "internalType": "uint256",
          "name": "tokenId",
          "type": "uint256"
        }
      ],
      "name": "transferFrom",
      "outputs": [],
      "stateMutability": "nonpayable",
      "type": "function"
    },
    {
      "inputs": [
        {
          "internalType": "address",
          "name": "newOwner",
          "type": "address"
        }
      ],
      "name": "transferOwnership",
      "outputs": [],
      "stateMutability": "nonpayable",
      "type": "function"
    },
    {
      "inputs": [
        {
          "internalType": "address",
          "name": "minter",
          "type": "address"
        }
      ],
      "name": "addMinter",
      "outputs": [],
      "stateMutability": "nonpayable",
      "type": "function"
    },
    {
      "inputs": [
        {
          "internalType": "address",
          "name": "owner",
          "type": "address"
        }
      ],
      "name": "getToken",
      "outputs": [
        {
          "internalType": "uint256",
          "name": "",
          "type": "uint256"
        }
      ],
      "stateMutability": "view",
      "type": "function",
      "constant": true
    },
    {
      "inputs": [
        {
          "internalType": "address",
          "name": "recipient",
          "type": "address"
        },
        {
          "internalType": "string",
          "name": "tokenURI",
          "type": "string"
        }
      ],
      "name": "mintNFT",
      "outputs": [
        {
          "internalType": "uint256",
          "name": "",
          "type": "uint256"
        }
      ],
      "stateMutability": "nonpayable",
      "type": "function"
    },
    {
      "inputs": [],
      "name": "isMintedr",
      "outputs": [
        {
          "internalType": "bool",
          "name": "",
          "type": "bool"
        }
      ],
      "stateMutability": "view",
      "type": "function",
      "constant": true
    },
    {
      "inputs": [
        {
          "internalType": "bytes4",
          "name": "interfaceId",
          "type": "bytes4"
        }
      ],
      "name": "supportsInterface",
      "outputs": [
        {
          "internalType": "bool",
          "name": "",
          "type": "bool"
        }
      ],
      "stateMutability": "view",
      "type": "function",
      "constant": true
    }
  ],
  "bytecode": "0x60806040523480156200001157600080fd5b50604080518082018252600a81527f474d616c61746f4e46540000000000000000000000000000000000000000000060208083019182528351808501909452600284527f474d0000000000000000000000000000000000000000000000000000000000009084015281519192916200008c916000916200012d565b508051620000a29060019060208401906200012d565b505050620000d1620000c2620000d7640100000000026401000000009004565b640100000000620000db810204565b62000228565b3390565b60078054600160a060020a03838116600160a060020a0319831681179093556040519116919082907f8be0079c531659141344cd1fd0a4f28419497f9722a3daafe3b4186f6b6457e090600090a35050565b8280546200013b90620001d3565b90600052602060002090601f0160209004810192826200015f5760008555620001aa565b82601f106200017a57805160ff1916838001178555620001aa565b82800160010185558215620001aa579182015b82811115620001aa5782518255916020019190600101906200018d565b50620001b8929150620001bc565b5090565b5b80821115620001b85760008155600101620001bd565b600281046001821680620001e857607f821691505b60208210810362000222577f4e487b7100000000000000000000000000000000000000000000000000000000600052602260045260246000fd5b50919050565b61202c80620002386000396000f3fe608060405234801561001057600080fd5b506004361061014c5760e060020a600035046301ffc9a7811461015157806306fdde0314610179578063081812fc1461018e578063095ea7b3146101b957806323b872dd146101ce578063248a9ca3146101e15780632f2ff15d1461020257806336568abe1461021557806342842e0e14610228578063597704381461023b5780636352211e1461026457806370a0823114610277578063715018a61461028a5780637a87a6b3146102925780638da5cb5b1461029a57806391d14854146102a257806395d89b41146102b5578063983b2d56146102bd578063a217fddf146102d0578063a22cb465146102d8578063b88d4fde146102eb578063c87b56dd146102fe578063d539139314610311578063d547741f14610326578063e985e9c514610339578063eacabe141461034c578063f2fde38b1461035f575b600080fd5b61016461015f36600461196d565b610372565b60405190151581526020015b60405180910390f35b610181610383565b60405161017091906119e2565b6101a161019c3660046119f5565b610415565b604051600160a060020a039091168152602001610170565b6101cc6101c7366004611a2a565b6104a8565b005b6101cc6101dc366004611a54565b6105c4565b6101f46101ef3660046119f5565b6105f8565b604051908152602001610170565b6101cc610210366004611a90565b61060d565b6101cc610223366004611a90565b610629565b6101cc610236366004611a54565b6106ad565b6101f4610249366004611abc565b600160a060020a03166000908152600a602052604090205490565b6101a16102723660046119f5565b6106c8565b6101f4610285366004611abc565b610745565b6101cc6107d2565b610164610810565b6101a161082f565b6101646102b0366004611a90565b61083e565b610181610869565b6101cc6102cb366004611abc565b610878565b6101f4600081565b6101cc6102e6366004611ad7565b6108c5565b6101cc6102f9366004611ba2565b6108d0565b61018161030c3660046119f5565b61090b565b6101f4600080516020611fb783398151915281565b6101cc610334366004611a90565b610a87565b610164610347366004611c1d565b610aa3565b6101f461035a366004611c47565b610ad1565b6101cc61036d366004611abc565b610b98565b600061037d82610c3e565b92915050565b60606000805461039290611ca8565b80601f01602080910402602001604051908101604052809291908181526020018280546103be90611ca8565b801561040b5780601f106103e05761010080835404028352916020019161040b565b820191906000526020600020905b8154815290600101906020018083116103ee57829003601f168201915b5050505050905090565b600061042082610c66565b61048c5760405160e560020a62461bcd02815260206004820152602c60248201527f4552433732313a20617070726f76656420717565727920666f72206e6f6e6578604482015260a160020a6b34b9ba32b73a103a37b5b2b70260648201526084015b60405180910390fd5b50600090815260046020526040902054600160a060020a031690565b60006104b3826106c8565b905080600160a060020a031683600160a060020a0316036105265760405160e560020a62461bcd02815260206004820152602160248201527f4552433732313a20617070726f76616c20746f2063757272656e74206f776e65604482015260f960020a6039026064820152608401610483565b33600160a060020a038216148061054257506105428133610aa3565b6105b55760405160e560020a62461bcd02815260206004820152603860248201527f4552433732313a20617070726f76652063616c6c6572206973206e6f74206f776044820152604260020a771b995c881b9bdc88185c1c1c9bdd995908199bdc88185b1b026064820152608401610483565b6105bf8383610c83565b505050565b6105ce3382610cf1565b6105ed5760405160e560020a62461bcd02815260040161048390611ce6565b6105bf838383610dc0565b60009081526008602052604090206001015490565b610616826105f8565b61061f81610f56565b6105bf8383610f60565b600160a060020a038116331461069f5760405160e560020a62461bcd02815260206004820152602f60248201527f416363657373436f6e74726f6c3a2063616e206f6e6c792072656e6f756e63656044820152608960020a6e103937b632b9903337b91039b2b633026064820152608401610483565b6106a98282610fe6565b5050565b6105bf838383604051806020016040528060008152506108d0565b600081815260026020526040812054600160a060020a03168061037d5760405160e560020a62461bcd02815260206004820152602960248201527f4552433732313a206f776e657220717565727920666f72206e6f6e6578697374604482015260b960020a6832b73a103a37b5b2b7026064820152608401610483565b6000600160a060020a0382166107b65760405160e560020a62461bcd02815260206004820152602a60248201527f4552433732313a2062616c616e636520717565727920666f7220746865207a65604482015260b060020a69726f2061646472657373026064820152608401610483565b50600160a060020a031660009081526003602052604090205490565b336107db61082f565b600160a060020a0316146108045760405160e560020a62461bcd02815260040161048390611d3a565b61080e600061104d565b565b600061082a600080516020611fb78339815191523361083e565b905090565b600754600160a060020a031690565b6000918252600860209081526040808420600160a060020a0393909316845291905290205460ff1690565b60606001805461039290611ca8565b3361088161082f565b600160a060020a0316146108aa5760405160e560020a62461bcd02815260040161048390611d3a565b6108c2600080516020611fb78339815191528261109f565b50565b6106a93383836110a9565b6108da3383610cf1565b6108f95760405160e560020a62461bcd02815260040161048390611ce6565b61090584848484611179565b50505050565b606061091682610c66565b6109825760405160e560020a62461bcd02815260206004820152603160248201527f45524337323155524953746f726167653a2055524920717565727920666f72206044820152607960020a703737b732bc34b9ba32b73a103a37b5b2b7026064820152608401610483565b6000828152600660205260408120805461099b90611ca8565b80601f01602080910402602001604051908101604052809291908181526020018280546109c790611ca8565b8015610a145780601f106109e957610100808354040283529160200191610a14565b820191906000526020600020905b8154815290600101906020018083116109f757829003601f168201915b505050505090506000610a3260408051602081019091526000815290565b90508051600003610a44575092915050565b815115610a76578082604051602001610a5e929190611d6f565b60405160208183030381529060405292505050919050565b610a7f846111af565b949350505050565b610a90826105f8565b610a9981610f56565b6105bf8383610fe6565b600160a060020a03918216600090815260056020908152604080832093909416825291909152205460ff1690565b6000610adb610810565b610b465760405160e560020a62461bcd02815260206004820152603060248201527f566f6365206e616f2074656d2070726976696c6567696f7320706172612065786044820152608060020a6f6563757461722065737361206163616f026064820152608401610483565b610b54600980546001019055565b6000610b5f60095490565b9050610b6b848261128d565b610b7581846113b4565b600160a060020a0384166000908152600a60205260409020819055905092915050565b33610ba161082f565b600160a060020a031614610bca5760405160e560020a62461bcd02815260040161048390611d3a565b600160a060020a038116610c355760405160e560020a62461bcd02815260206004820152602660248201527f4f776e61626c653a206e6577206f776e657220697320746865207a65726f2061604482015260d060020a65646472657373026064820152608401610483565b6108c28161104d565b6000600160e060020a0319821660e060020a637965db0b02148061037d575061037d82611445565b600090815260026020526040902054600160a060020a0316151590565b60008181526004602052604090208054600160a060020a031916600160a060020a0384169081179091558190610cb8826106c8565b600160a060020a03167f8c5be1e5ebec7d5bd14f71427d1e84f3dd0314c0f7b2291e5b200ac8c7c3b92560405160405180910390a45050565b6000610cfc82610c66565b610d635760405160e560020a62461bcd02815260206004820152602c60248201527f4552433732313a206f70657261746f7220717565727920666f72206e6f6e6578604482015260a160020a6b34b9ba32b73a103a37b5b2b7026064820152608401610483565b6000610d6e836106c8565b905080600160a060020a031684600160a060020a03161480610d955750610d958185610aa3565b80610a7f575083600160a060020a0316610dae84610415565b600160a060020a031614949350505050565b82600160a060020a0316610dd3826106c8565b600160a060020a031614610e3d5760405160e560020a62461bcd02815260206004820152602560248201527f4552433732313a207472616e736665722066726f6d20696e636f727265637420604482015260d960020a6437bbb732b9026064820152608401610483565b600160a060020a038216610ea55760405160e560020a62461bcd028152602060048201526024808201527f4552433732313a207472616e7366657220746f20746865207a65726f20616464604482015260e060020a6372657373026064820152608401610483565b610eb0600082610c83565b600160a060020a0383166000908152600360205260408120805460019290610ed9908490611db8565b9091555050600160a060020a0382166000908152600360205260408120805460019290610f07908490611dcf565b90915550506000818152600260205260408082208054600160a060020a031916600160a060020a038681169182179092559151849391871691600080516020611fd783398151915291a4505050565b6108c2813361149e565b610f6a828261083e565b6106a9576000828152600860209081526040808320600160a060020a03851684529091529020805460ff19166001179055610fa23390565b600160a060020a031681600160a060020a0316837f2f8788117e7eff1d82e926ec794901d17c78024a50270940304540a733656f0d60405160405180910390a45050565b610ff0828261083e565b156106a9576000828152600860209081526040808320600160a060020a0385168085529252808320805460ff1916905551339285917ff6391f5c32d9c69d2a47ea670b442974b53935d1edc7fd64eb21e047a839171b9190a45050565b60078054600160a060020a03838116600160a060020a0319831681179093556040519116919082907f8be0079c531659141344cd1fd0a4f28419497f9722a3daafe3b4186f6b6457e090600090a35050565b6106a98282610f60565b81600160a060020a031683600160a060020a03160361110c5760405160e560020a62461bcd0281526020600482015260196024820152603960020a7822a9219b99189d1030b8383937bb32903a379031b0b63632b9026044820152606401610483565b600160a060020a03838116600081815260056020908152604080832094871680845294825291829020805460ff191686151590811790915591519182527f17307eab39ab6107e8899845ad3d59bd9653f200f220920489ca2b5937696c31910160405180910390a3505050565b611184848484610dc0565b61119084848484611505565b6109055760405160e560020a62461bcd02815260040161048390611de7565b60606111ba82610c66565b6112245760405160e560020a62461bcd02815260206004820152602f60248201527f4552433732314d657461646174613a2055524920717565727920666f72206e6f6044820152608960020a6e3732bc34b9ba32b73a103a37b5b2b7026064820152608401610483565b600061123b60408051602081019091526000815290565b9050600081511161125b5760405180602001604052806000815250611286565b806112658461160f565b604051602001611276929190611d6f565b6040516020818303038152906040525b9392505050565b600160a060020a0382166112e65760405160e560020a62461bcd02815260206004820181905260248201527f4552433732313a206d696e7420746f20746865207a65726f20616464726573736044820152606401610483565b6112ef81610c66565b1561133f5760405160e560020a62461bcd02815260206004820152601c60248201527f4552433732313a20746f6b656e20616c7265616479206d696e746564000000006044820152606401610483565b600160a060020a0382166000908152600360205260408120805460019290611368908490611dcf565b90915550506000818152600260205260408082208054600160a060020a031916600160a060020a0386169081179091559051839290600080516020611fd7833981519152908290a45050565b6113bd82610c66565b6114265760405160e560020a62461bcd02815260206004820152602e60248201527f45524337323155524953746f726167653a2055524920736574206f66206e6f6e6044820152609160020a6d32bc34b9ba32b73a103a37b5b2b7026064820152608401610483565b600082815260066020908152604090912082516105bf928401906118be565b6000600160e060020a0319821660e060020a6380ac58cd02148061147c5750600160e060020a0319821660e060020a635b5e139f02145b8061037d575060e060020a6301ffc9a702600160e060020a031983161461037d565b6114a8828261083e565b6106a9576114c081600160a060020a03166014611715565b6114cb836020611715565b6040516020016114dc929190611e3c565b60408051601f198184030181529082905260e560020a62461bcd028252610483916004016119e2565b6000600160a060020a0384163b156116045760405160e160020a630a85bd01028152600160a060020a0385169063150b7a029061154c903390899088908890600401611eb1565b6020604051808303816000875af1925050508015611587575060408051601f3d908101601f1916820190925261158491810190611eee565b60015b6115e7573d8080156115b5576040519150601f19603f3d011682016040523d82523d6000602084013e6115ba565b606091505b5080516000036115df5760405160e560020a62461bcd02815260040161048390611de7565b805181602001fd5b600160e060020a03191660e160020a630a85bd0102149050610a7f565b506001949350505050565b606081600003611639575050604080518082019091526001815260fc60020a600302602082015290565b8160005b8115611663578061164d81611f0b565b915061165c9050600a83611f3e565b915061163d565b6000816001604060020a0381111561167d5761167d611b13565b6040519080825280601f01601f1916602001820160405280156116a7576020820181803683370190505b5090505b8415610a7f576116bc600183611db8565b91506116c9600a86611f52565b6116d4906030611dcf565b60f860020a028183815181106116ec576116ec611f66565b6020010190600160f860020a031916908160001a90535061170e600a86611f3e565b94506116ab565b60606000611724836002611f80565b61172f906002611dcf565b6001604060020a0381111561174657611746611b13565b6040519080825280601f01601f191660200182016040528015611770576020820181803683370190505b50905060fc60020a6003028160008151811061178e5761178e611f66565b6020010190600160f860020a031916908160001a90535060fb60020a600f02816001815181106117c0576117c0611f66565b6020010190600160f860020a031916908160001a90535060006117e4846002611f80565b6117ef906001611dcf565b90505b600181111561186c57608160020a6f181899199a1a9b1b9c1cb0b131b232b30285600f166010811061182657611826611f66565b1a60f860020a0282828151811061183f5761183f611f66565b6020010190600160f860020a031916908160001a90535060109094049361186581611f9f565b90506117f2565b5083156112865760405160e560020a62461bcd02815260206004820181905260248201527f537472696e67733a20686578206c656e67746820696e73756666696369656e746044820152606401610483565b8280546118ca90611ca8565b90600052602060002090601f0160209004810192826118ec5760008555611932565b82601f1061190557805160ff1916838001178555611932565b82800160010185558215611932579182015b82811115611932578251825591602001919060010190611917565b5061193e929150611942565b5090565b5b8082111561193e5760008155600101611943565b600160e060020a0319811681146108c257600080fd5b60006020828403121561197f57600080fd5b813561128681611957565b60005b838110156119a557818101518382015260200161198d565b838111156109055750506000910152565b600081518084526119ce81602086016020860161198a565b601f01601f19169290920160200192915050565b60208152600061128660208301846119b6565b600060208284031215611a0757600080fd5b5035919050565b8035600160a060020a0381168114611a2557600080fd5b919050565b60008060408385031215611a3d57600080fd5b611a4683611a0e565b946020939093013593505050565b600080600060608486031215611a6957600080fd5b611a7284611a0e565b9250611a8060208501611a0e565b9150604084013590509250925092565b60008060408385031215611aa357600080fd5b82359150611ab360208401611a0e565b90509250929050565b600060208284031215611ace57600080fd5b61128682611a0e565b60008060408385031215611aea57600080fd5b611af383611a0e565b915060208301358015158114611b0857600080fd5b809150509250929050565b60e060020a634e487b710260009081526041600452602490fd5b60006001604060020a0380841115611b4757611b47611b13565b604051601f8501601f19908116603f01168101908282118183101715611b6f57611b6f611b13565b81604052809350858152868686011115611b8857600080fd5b858560208301376000602087830101525050509392505050565b60008060008060808587031215611bb857600080fd5b611bc185611a0e565b9350611bcf60208601611a0e565b92506040850135915060608501356001604060020a03811115611bf157600080fd5b8501601f81018713611c0257600080fd5b611c1187823560208401611b2d565b91505092959194509250565b60008060408385031215611c3057600080fd5b611c3983611a0e565b9150611ab360208401611a0e565b60008060408385031215611c5a57600080fd5b611c6383611a0e565b915060208301356001604060020a03811115611c7e57600080fd5b8301601f81018513611c8f57600080fd5b611c9e85823560208401611b2d565b9150509250929050565b600281046001821680611cbc57607f821691505b602082108103611ce05760e060020a634e487b710260009081526022600452602490fd5b50919050565b60208082526031908201527f4552433732313a207472616e736665722063616c6c6572206973206e6f74206f6040820152607a60020a701ddb995c881b9bdc88185c1c1c9bdd995902606082015260800190565b6020808252818101527f4f776e61626c653a2063616c6c6572206973206e6f7420746865206f776e6572604082015260600190565b60008351611d8181846020880161198a565b835190830190611d9581836020880161198a565b01949350505050565b60e060020a634e487b710260009081526011600452602490fd5b600082821015611dca57611dca611d9e565b500390565b60008219821115611de257611de2611d9e565b500190565b60208082526032908201527f4552433732313a207472616e7366657220746f206e6f6e2045524337323152656040820152607160020a7131b2b4bb32b91034b6b83632b6b2b73a32b902606082015260800190565b604d60020a76020b1b1b2b9b9a1b7b73a3937b61d1030b1b1b7bab73a102815260008351611e7181601785016020880161198a565b607d60020a7001034b99036b4b9b9b4b733903937b6329026017918401918201528351611ea581602884016020880161198a565b01602801949350505050565b600160a060020a0385811682528416602082015260408101839052608060608201819052600090611ee4908301846119b6565b9695505050505050565b600060208284031215611f0057600080fd5b815161128681611957565b600060018201611f1d57611f1d611d9e565b5060010190565b60e060020a634e487b710260009081526012600452602490fd5b600082611f4d57611f4d611f24565b500490565b600082611f6157611f61611f24565b500690565b60e060020a634e487b710260009081526032600452602490fd5b6000816000190483118215151615611f9a57611f9a611d9e565b500290565b600081611fae57611fae611d9e565b50600019019056fe9f2df0fed2c77648de5860a4cc508cd0818c85b8b8a1ab4ceeef8d981c8956a6ddf252ad1be2c89b69c2b068fc378daa952ba7f163c4a11628f55a4df523b3efa26469706673582212208a68e33caae7310c649b5c2664e1196d65364cf9e82d19bbfa9d0d956868462064736f6c634300080d0033",
  "immutableReferences": {},
  "source": "// SPDX-License-Identifier: MIT\r\npragma solidity >=0.4.22 <0.9.0;\r\nimport \"@openzeppelin/contracts/token/ERC721/ERC721.sol\";\r\nimport \"@openzeppelin/contracts/token/ERC721/extensions/ERC721URIStorage.sol\";\r\nimport \"@openzeppelin/contracts/utils/Counters.sol\";\r\nimport \"@openzeppelin/contracts/access/Ownable.sol\";\r\nimport \"@openzeppelin/contracts/access/AccessControl.sol\";\r\ncontract GMalatoToken is ERC721URIStorage, Ownable,AccessControl {\r\n   using Counters for Counters.Counter;\r\n   Counters.Counter private _tokenIds;\r\n   bytes32 public constant MINTER_ROLE = keccak256(\"MINTER_ROLE\"); \r\n   constructor() ERC721(\"GMalatoNFT\", \"GM\") {\r\n       \r\n   }\r\n    mapping (address => uint) Tokens;\r\n\r\n    function addMinter(address minter) public onlyOwner{\r\n        _setupRole(MINTER_ROLE, minter);\r\n    }\r\n    \r\n    function getToken(address owner) view public returns(uint){\r\n        return Tokens[owner] ;\r\n    }\r\n   function mintNFT(address recipient, string memory tokenURI) \r\n       public\r\n       returns (uint256)\r\n   {\r\n        require(isMintedr(), \"Voce nao tem privilegios para executar essa acao\");\r\n       _tokenIds.increment();\r\n       uint256 newItemId = _tokenIds.current();\r\n       _mint(recipient, newItemId);\r\n       _setTokenURI(newItemId, tokenURI);\r\n        Tokens[recipient] = newItemId;\r\n       return newItemId;\r\n   }\r\n   function isMintedr()  view public returns(bool ) {\r\n       return hasRole(MINTER_ROLE, msg.sender);\r\n    }\r\n   function supportsInterface(bytes4 interfaceId) public view virtual override(ERC721, AccessControl) returns (bool) {\r\n        return super.supportsInterface(interfaceId);\r\n    }\r\n}",
  "sourcePath": "D:\\Web30\\Truffle\\FabricaLeilao\\contracts\\GMalatoToken.sol",
  "compiler": {
    "name": "solc",
    "version": "0.8.13+commit.abaa5c0e.Emscripten.clang"
  },
  "schemaVersion": "3.4.7",
  "updatedAt": "2022-05-15T20:54:34.752Z",
  "networkType": "ethereum",
  "devdoc": {
    "kind": "dev",
    "methods": {
      "approve(address,uint256)": {
        "details": "See {IERC721-approve}."
      },
      "balanceOf(address)": {
        "details": "See {IERC721-balanceOf}."
      },
      "getApproved(uint256)": {
        "details": "See {IERC721-getApproved}."
      },
      "getRoleAdmin(bytes32)": {
        "details": "Returns the admin role that controls `role`. See {grantRole} and {revokeRole}. To change a role's admin, use {_setRoleAdmin}."
      },
      "grantRole(bytes32,address)": {
        "details": "Grants `role` to `account`. If `account` had not been already granted `role`, emits a {RoleGranted} event. Requirements: - the caller must have ``role``'s admin role."
      },
      "hasRole(bytes32,address)": {
        "details": "Returns `true` if `account` has been granted `role`."
      },
      "isApprovedForAll(address,address)": {
        "details": "See {IERC721-isApprovedForAll}."
      },
      "name()": {
        "details": "See {IERC721Metadata-name}."
      },
      "owner()": {
        "details": "Returns the address of the current owner."
      },
      "ownerOf(uint256)": {
        "details": "See {IERC721-ownerOf}."
      },
      "renounceOwnership()": {
        "details": "Leaves the contract without owner. It will not be possible to call `onlyOwner` functions anymore. Can only be called by the current owner. NOTE: Renouncing ownership will leave the contract without an owner, thereby removing any functionality that is only available to the owner."
      },
      "renounceRole(bytes32,address)": {
        "details": "Revokes `role` from the calling account. Roles are often managed via {grantRole} and {revokeRole}: this function's purpose is to provide a mechanism for accounts to lose their privileges if they are compromised (such as when a trusted device is misplaced). If the calling account had been revoked `role`, emits a {RoleRevoked} event. Requirements: - the caller must be `account`."
      },
      "revokeRole(bytes32,address)": {
        "details": "Revokes `role` from `account`. If `account` had been granted `role`, emits a {RoleRevoked} event. Requirements: - the caller must have ``role``'s admin role."
      },
      "safeTransferFrom(address,address,uint256)": {
        "details": "See {IERC721-safeTransferFrom}."
      },
      "safeTransferFrom(address,address,uint256,bytes)": {
        "details": "See {IERC721-safeTransferFrom}."
      },
      "setApprovalForAll(address,bool)": {
        "details": "See {IERC721-setApprovalForAll}."
      },
      "symbol()": {
        "details": "See {IERC721Metadata-symbol}."
      },
      "tokenURI(uint256)": {
        "details": "See {IERC721Metadata-tokenURI}."
      },
      "transferFrom(address,address,uint256)": {
        "details": "See {IERC721-transferFrom}."
      },
      "transferOwnership(address)": {
        "details": "Transfers ownership of the contract to a new account (`newOwner`). Can only be called by the current owner."
      }
    },
    "version": 1
  },
  "userdoc": {
    "kind": "user",
    "methods": {},
    "version": 1
  }
}