{
  "contractName": "Leilao",
  "abi": [
    {
      "inputs": [],
      "stateMutability": "nonpayable",
      "type": "constructor"
    },
    {
      "anonymous": false,
      "inputs": [
        {
          "indexed": true,
          "internalType": "address",
          "name": "sender",
          "type": "address"
        },
        {
          "indexed": false,
          "internalType": "uint256",
          "name": "amount",
          "type": "uint256"
        }
      ],
      "name": "Bid",
      "type": "event"
    },
    {
      "anonymous": false,
      "inputs": [
        {
          "indexed": false,
          "internalType": "address",
          "name": "winner",
          "type": "address"
        },
        {
          "indexed": false,
          "internalType": "uint256",
          "name": "highestBid",
          "type": "uint256"
        }
      ],
      "name": "End",
      "type": "event"
    },
    {
      "anonymous": false,
      "inputs": [
        {
          "indexed": false,
          "internalType": "uint256",
          "name": "startingBid",
          "type": "uint256"
        }
      ],
      "name": "Start",
      "type": "event"
    },
    {
      "inputs": [],
      "name": "endAt",
      "outputs": [
        {
          "internalType": "uint256",
          "name": "",
          "type": "uint256"
        }
      ],
      "stateMutability": "view",
      "type": "function",
      "constant": true
    },
    {
      "inputs": [],
      "name": "ended",
      "outputs": [
        {
          "internalType": "bool",
          "name": "",
          "type": "bool"
        }
      ],
      "stateMutability": "view",
      "type": "function",
      "constant": true
    },
    {
      "inputs": [],
      "name": "highestBid",
      "outputs": [
        {
          "internalType": "uint256",
          "name": "",
          "type": "uint256"
        }
      ],
      "stateMutability": "view",
      "type": "function",
      "constant": true
    },
    {
      "inputs": [],
      "name": "highestBidder",
      "outputs": [
        {
          "internalType": "address",
          "name": "",
          "type": "address"
        }
      ],
      "stateMutability": "view",
      "type": "function",
      "constant": true
    },
    {
      "inputs": [],
      "name": "started",
      "outputs": [
        {
          "internalType": "bool",
          "name": "",
          "type": "bool"
        }
      ],
      "stateMutability": "view",
      "type": "function",
      "constant": true
    },
    {
      "inputs": [
        {
          "internalType": "address",
          "name": "minter",
          "type": "address"
        }
      ],
      "name": "addMinter",
      "outputs": [],
      "stateMutability": "nonpayable",
      "type": "function"
    },
    {
      "inputs": [],
      "name": "bid",
      "outputs": [],
      "stateMutability": "payable",
      "type": "function",
      "payable": true
    },
    {
      "inputs": [],
      "name": "widthdraw",
      "outputs": [],
      "stateMutability": "payable",
      "type": "function",
      "payable": true
    },
    {
      "inputs": [
        {
          "internalType": "uint256",
          "name": "startingBid",
          "type": "uint256"
        }
      ],
      "name": "start",
      "outputs": [],
      "stateMutability": "nonpayable",
      "type": "function"
    },
    {
      "inputs": [],
      "name": "end",
      "outputs": [],
      "stateMutability": "nonpayable",
      "type": "function"
    },
    {
      "inputs": [],
      "name": "getHighest",
      "outputs": [
        {
          "internalType": "address",
          "name": "bidder",
          "type": "address"
        },
        {
          "internalType": "uint256",
          "name": "bidValue",
          "type": "uint256"
        }
      ],
      "stateMutability": "view",
      "type": "function",
      "constant": true
    },
    {
      "inputs": [],
      "name": "getLances",
      "outputs": [
        {
          "components": [
            {
              "internalType": "uint256",
              "name": "valor",
              "type": "uint256"
            },
            {
              "internalType": "address",
              "name": "dono",
              "type": "address"
            }
          ],
          "internalType": "struct Leilao.lance[]",
          "name": "",
          "type": "tuple[]"
        }
      ],
      "stateMutability": "view",
      "type": "function",
      "constant": true
    }
  ],
  "bytecode": "0x60806040526000805460ff1916815560025534801561001d57600080fd5b506108ab8061002d6000396000f3fe60806040526004361061009a5760e060020a600035046312fa6feb811461009f5780631998aeef146100d35780631f2698ab146100dd57806352b50a2a146100f75780637cc3ae8c146100ff57806391f901571461012357806395805dad1461015b578063983b2d561461017b578063a57e2d4d14610199578063d57bde79146101cb578063dea722f2146101e1578063efbe1c1c14610203575b600080fd5b3480156100ab57600080fd5b506000546100be90610100900460ff1681565b60405190151581526020015b60405180910390f35b6100db610218565b005b3480156100e957600080fd5b506000546100be9060ff1681565b6100db610421565b34801561010b57600080fd5b5061011560015481565b6040519081526020016100ca565b34801561012f57600080fd5b5060045461014390600160a060020a031681565b604051600160a060020a0390911681526020016100ca565b34801561016757600080fd5b506100db610176366004610791565b610576565b34801561018757600080fd5b506100db6101963660046107aa565b50565b3480156101a557600080fd5b506101bd600454600354600160a060020a0390911691565b6040516100ca9291906107da565b3480156101d757600080fd5b5061011560035481565b3480156101ed57600080fd5b506101f66105ce565b6040516100ca91906107f3565b34801561020f57600080fd5b506100db610643565b60005460ff166102725760405160e560020a62461bcd02815260206004820152601a60248201527f4f204c65696c616f2061696e6461206e616f20636f6d65636f7500000000000060448201526064015b60405180910390fd5b600054610100900460ff16156102c75760405160e560020a62461bcd0281526020600482015260146024820152606060020a734f204c65696c616f206a61207465726d696e6f75026044820152606401610269565b60035434116103365760405160e560020a62461bcd02815260206004820152602f60248201527f4f2076616c6f722074656d2071756520736572206d61696f7220717565206f206044820152608860020a6e6c616e6365206d61697320616c746f026064820152608401610269565b60408051808201825233602080830182815234808552600780546001810182556000918252865160029091027fa66cc928b5edb82af9bd49922954155ab7b0942694bea4ce44661d9a8736c68881019190915592517fa66cc928b5edb82af9bd49922954155ab7b0942694bea4ce44661d9a8736c6899093018054600160a060020a03909416600160a060020a0319948516179055600480549093168517909255838252600683529085902081905560038190559351938452919290917fe684a55f31b79eca403df938249029212a5925ec6be8012e099b45bc1019e5d2910160405180910390a250565b600054610100900460ff1661047b5760405160e560020a62461bcd02815260206004820152601b60248201527f4f206c65696c616f2061696e6461206e616f207465726d696e6f7500000000006044820152606401610269565b600454600160a060020a031633036104d75760405160e560020a62461bcd0281526020600482015260196024820152603960020a78279033b0b73430b237b9103730b7903837b2329039b0b1b0b9026044820152606401610269565b33600090815260066020526040902054806105375760405160e560020a62461bcd02815260206004820152601b60248201527f566f6365206e616f2074656d206e6164612070726120736163617200000000006044820152606401610269565b336000818152600660205260408082208290555183156108fc0291849190818181858888f19350505050158015610572573d6000803e3d6000fd5b5050565b6000805461ffff191660011790556105904261025861084b565b60015560038190556040518181527ff06a29c94c6f4edc1085072972d9441f7603e81c8535a308f214285d0653c8509060200160405180910390a150565b60606007805480602002602001604051908101604052809291908181526020016000905b8282101561063a576000848152602090819020604080518082019091526002850290910180548252600190810154600160a060020a03168284015290835290920191016105f2565b50505050905090565b60005460ff166106915760405160e560020a62461bcd0281526020600482015260136024820152606860020a724c65696c616f206e616f20696e69636961646f026044820152606401610269565b60015442116106e45760405160e560020a62461bcd0281526020600482015260196024820152603860020a784c65696c616f2061696e6461206e616f207465726d696e6f75026044820152606401610269565b600054610100900460ff16156107385760405160e560020a62461bcd0281526020600482015260136024820152606860020a724c65696c616f206a6120207465726d696e6f75026044820152606401610269565b6000805461ff0019166101001790556004546003546040517f7d7570b046e5ead3a4f3fbc9fa2445113625a1e79823776146316bafed6b8cc59261078792600160a060020a03909116916107da565b60405180910390a1565b6000602082840312156107a357600080fd5b5035919050565b6000602082840312156107bc57600080fd5b8135600160a060020a03811681146107d357600080fd5b9392505050565b600160a060020a03929092168252602082015260400190565b602080825282518282018190526000919060409081850190868401855b8281101561083e57815180518552860151600160a060020a0316868501529284019290850190600101610810565b5091979650505050505050565b600082198211156108705760e060020a634e487b710260009081526011600452602490fd5b50019056fea26469706673582212204ba54916d2ed0323ddf70a2fd8853aa4bb3e2f6735be6f2b682e923dbc04eba564736f6c634300080d0033",
  "immutableReferences": {},
  "source": "// SPDX-License-Identifier: MIT\r\npragma solidity >=0.4.22 <0.9.0;\r\ncontract Leilao { \r\n    event Start(uint startingBid);\r\n    event End(address winner, uint highestBid);\r\n    event Bid(address indexed sender, uint amount);\r\n    bool public started = false;\r\n    bool public ended;\r\n    uint public endAt;\r\n    uint TokenID =0;\r\n    uint public highestBid ;\r\n    address public highestBidder  ;\r\n    address  sponser ;\r\n    mapping (address => uint) lances;\r\n    lance[]  _lances;\r\n    struct lance {\r\n        uint valor;\r\n        address dono;\r\n        \r\n    } \r\n    constructor() {\r\n    }\r\n/*\r\n    modifier OnlyMinter() {\r\n        require(Token.isMintedr(), \"Voce nao tem privilegios para executar essa acao\");\r\n        _;\r\n    }\r\n    function isMintedr() public view returns(bool) {\r\n        return Token.isMintedr();\r\n    }\r\n    */\r\n    function addMinter(address minter) public {\r\n        //Token.setI( minter);\r\n    }\r\n  \r\n    function bid() external payable {\r\n        require(started, \"O Leilao ainda nao comecou\");\r\n        require(ended == false, \"O Leilao ja terminou\");\r\n        require(msg.value > highestBid, \"O valor tem que ser maior que o lance mais alto\");\r\n         lance memory _lance;\r\n        _lance.dono = msg.sender;\r\n        _lance.valor =   msg.value;\r\n        _lances.push(_lance);\r\n\r\n        highestBidder = msg.sender;\r\n        lances[msg.sender] = msg.value;\r\n        highestBid = msg.value;\r\n        emit Bid(msg.sender,msg.value);\r\n        \r\n    }\r\n    function widthdraw() external payable {\r\n        require(ended ,\"O leilao ainda nao terminou\");\r\n        require(msg.sender != highestBidder, \"O ganhador nao pode sacar\");\r\n        uint bal = lances[msg.sender];\r\n        require(bal > 0, \"Voce nao tem nada pra sacar\");\r\n        lances[msg.sender] = 0;\r\n        payable(msg.sender).transfer(bal);\r\n    }\r\n\r\n    function start(uint startingBid) public {\r\n        //require(started == false,\"Leilao ja iniciado\");\r\n        started = true;\r\n        ended = false;\r\n        endAt = block.timestamp + 10 minutes;\r\n        //Token.mintNFT(sponser, nftUrl);\r\n        //TokenID = Token.getToken(sponser);\r\n        highestBid = startingBid;\r\n        \r\n\r\n        emit Start(startingBid);\r\n    }\r\n\r\n     function end()  external  {\r\n        require(started,\"Leilao nao iniciado\");\r\n        require(block.timestamp > endAt,\"Leilao ainda nao terminou\");\r\n        require(!ended,\"Leilao ja  terminou\");\r\n        //Token.transferFrom(sponser,highestBidder, TokenID);\r\n        ended = true;\r\n        emit End(highestBidder, highestBid);\r\n     }\r\n     function getHighest() public view  returns(address bidder, uint bidValue) {\r\n         bidder = highestBidder;\r\n         bidValue = highestBid;\r\n     }\r\n     function getLances() public view returns(lance[] memory ) {\r\n         return _lances;\r\n\r\n     }\r\n}",
  "sourcePath": "D:\\Web30\\Truffle\\FabricaLeilao\\contracts\\Leilao.sol",
  "compiler": {
    "name": "solc",
    "version": "0.8.13+commit.abaa5c0e.Emscripten.clang"
  },
  "schemaVersion": "3.4.7",
  "updatedAt": "2022-05-15T20:54:35.982Z",
  "networkType": "ethereum",
  "devdoc": {
    "kind": "dev",
    "methods": {},
    "version": 1
  },
  "userdoc": {
    "kind": "user",
    "methods": {},
    "version": 1
  }
}